{"abi":[{"type":"constructor","inputs":[],"stateMutability":"nonpayable"},{"type":"function","name":"MINIMUM_LIQUIDITY","inputs":[],"outputs":[{"name":"","type":"uint256","internalType":"uint256"}],"stateMutability":"view"},{"type":"function","name":"allowance","inputs":[{"name":"owner","type":"address","internalType":"address"},{"name":"spender","type":"address","internalType":"address"}],"outputs":[{"name":"","type":"uint256","internalType":"uint256"}],"stateMutability":"view"},{"type":"function","name":"approve","inputs":[{"name":"spender","type":"address","internalType":"address"},{"name":"value","type":"uint256","internalType":"uint256"}],"outputs":[{"name":"","type":"bool","internalType":"bool"}],"stateMutability":"nonpayable"},{"type":"function","name":"balanceOf","inputs":[{"name":"account","type":"address","internalType":"address"}],"outputs":[{"name":"","type":"uint256","internalType":"uint256"}],"stateMutability":"view"},{"type":"function","name":"burn","inputs":[{"name":"to","type":"address","internalType":"address"}],"outputs":[{"name":"amount0","type":"uint256","internalType":"uint256"},{"name":"amount1","type":"uint256","internalType":"uint256"}],"stateMutability":"nonpayable"},{"type":"function","name":"decimals","inputs":[],"outputs":[{"name":"","type":"uint8","internalType":"uint8"}],"stateMutability":"view"},{"type":"function","name":"factory","inputs":[],"outputs":[{"name":"","type":"address","internalType":"address"}],"stateMutability":"view"},{"type":"function","name":"getReserves","inputs":[],"outputs":[{"name":"_reserve0","type":"uint112","internalType":"uint112"},{"name":"_reserve1","type":"uint112","internalType":"uint112"},{"name":"_blockTimestampLast","type":"uint32","internalType":"uint32"}],"stateMutability":"view"},{"type":"function","name":"initialize","inputs":[{"name":"_token0","type":"address","internalType":"address"},{"name":"_token1","type":"address","internalType":"address"}],"outputs":[],"stateMutability":"nonpayable"},{"type":"function","name":"kLast","inputs":[],"outputs":[{"name":"","type":"uint256","internalType":"uint256"}],"stateMutability":"view"},{"type":"function","name":"mint","inputs":[{"name":"to","type":"address","internalType":"address"}],"outputs":[{"name":"liquidity","type":"uint256","internalType":"uint256"}],"stateMutability":"nonpayable"},{"type":"function","name":"name","inputs":[],"outputs":[{"name":"","type":"string","internalType":"string"}],"stateMutability":"view"},{"type":"function","name":"price0CumulativeLast","inputs":[],"outputs":[{"name":"","type":"uint256","internalType":"uint256"}],"stateMutability":"view"},{"type":"function","name":"price1CumulativeLast","inputs":[],"outputs":[{"name":"","type":"uint256","internalType":"uint256"}],"stateMutability":"view"},{"type":"function","name":"skim","inputs":[{"name":"to","type":"address","internalType":"address"}],"outputs":[],"stateMutability":"nonpayable"},{"type":"function","name":"swap","inputs":[{"name":"amount0Out","type":"uint256","internalType":"uint256"},{"name":"amount1Out","type":"uint256","internalType":"uint256"},{"name":"to","type":"address","internalType":"address"},{"name":"data","type":"bytes","internalType":"bytes"}],"outputs":[],"stateMutability":"nonpayable"},{"type":"function","name":"symbol","inputs":[],"outputs":[{"name":"","type":"string","internalType":"string"}],"stateMutability":"view"},{"type":"function","name":"sync","inputs":[],"outputs":[],"stateMutability":"nonpayable"},{"type":"function","name":"token0","inputs":[],"outputs":[{"name":"","type":"address","internalType":"address"}],"stateMutability":"view"},{"type":"function","name":"token1","inputs":[],"outputs":[{"name":"","type":"address","internalType":"address"}],"stateMutability":"view"},{"type":"function","name":"totalSupply","inputs":[],"outputs":[{"name":"","type":"uint256","internalType":"uint256"}],"stateMutability":"view"},{"type":"function","name":"transfer","inputs":[{"name":"to","type":"address","internalType":"address"},{"name":"value","type":"uint256","internalType":"uint256"}],"outputs":[{"name":"","type":"bool","internalType":"bool"}],"stateMutability":"nonpayable"},{"type":"function","name":"transferFrom","inputs":[{"name":"from","type":"address","internalType":"address"},{"name":"to","type":"address","internalType":"address"},{"name":"value","type":"uint256","internalType":"uint256"}],"outputs":[{"name":"","type":"bool","internalType":"bool"}],"stateMutability":"nonpayable"},{"type":"event","name":"Approval","inputs":[{"name":"owner","type":"address","indexed":true,"internalType":"address"},{"name":"spender","type":"address","indexed":true,"internalType":"address"},{"name":"value","type":"uint256","indexed":false,"internalType":"uint256"}],"anonymous":false},{"type":"event","name":"Burn","inputs":[{"name":"sender","type":"address","indexed":true,"internalType":"address"},{"name":"amount0","type":"uint256","indexed":false,"internalType":"uint256"},{"name":"amount1","type":"uint256","indexed":false,"internalType":"uint256"},{"name":"to","type":"address","indexed":true,"internalType":"address"}],"anonymous":false},{"type":"event","name":"Mint","inputs":[{"name":"sender","type":"address","indexed":true,"internalType":"address"},{"name":"amount0","type":"uint256","indexed":false,"internalType":"uint256"},{"name":"amount1","type":"uint256","indexed":false,"internalType":"uint256"}],"anonymous":false},{"type":"event","name":"Swap","inputs":[{"name":"sender","type":"address","indexed":true,"internalType":"address"},{"name":"amount0In","type":"uint256","indexed":false,"internalType":"uint256"},{"name":"amount1In","type":"uint256","indexed":false,"internalType":"uint256"},{"name":"amount0Out","type":"uint256","indexed":false,"internalType":"uint256"},{"name":"amount1Out","type":"uint256","indexed":false,"internalType":"uint256"},{"name":"to","type":"address","indexed":true,"internalType":"address"}],"anonymous":false},{"type":"event","name":"Sync","inputs":[{"name":"reserve0","type":"uint112","indexed":false,"internalType":"uint112"},{"name":"reserve1","type":"uint112","indexed":false,"internalType":"uint112"}],"anonymous":false},{"type":"event","name":"Transfer","inputs":[{"name":"from","type":"address","indexed":true,"internalType":"address"},{"name":"to","type":"address","indexed":true,"internalType":"address"},{"name":"value","type":"uint256","indexed":false,"internalType":"uint256"}],"anonymous":false},{"type":"error","name":"ERC20InsufficientAllowance","inputs":[{"name":"spender","type":"address","internalType":"address"},{"name":"allowance","type":"uint256","internalType":"uint256"},{"name":"needed","type":"uint256","internalType":"uint256"}]},{"type":"error","name":"ERC20InsufficientBalance","inputs":[{"name":"sender","type":"address","internalType":"address"},{"name":"balance","type":"uint256","internalType":"uint256"},{"name":"needed","type":"uint256","internalType":"uint256"}]},{"type":"error","name":"ERC20InvalidApprover","inputs":[{"name":"approver","type":"address","internalType":"address"}]},{"type":"error","name":"ERC20InvalidReceiver","inputs":[{"name":"receiver","type":"address","internalType":"address"}]},{"type":"error","name":"ERC20InvalidSender","inputs":[{"name":"sender","type":"address","internalType":"address"}]},{"type":"error","name":"ERC20InvalidSpender","inputs":[{"name":"spender","type":"address","internalType":"address"}]}],"bytecode":{"object":"0x60806040523461032d57604080519081016001600160401b03811182821017610240576040908152600a8252692ab734b9bbb0b8102b1960b11b602083015280519081016001600160401b038111828210176102405760405260068152652aa72496ab1960d11b602082015281516001600160401b03811161024057600354600181811c91168015610323575b602082101461022257601f81116102c0575b50602092601f821160011461025f57928192935f92610254575b50508160011b915f199060031b1c1916176003555b80516001600160401b03811161024057600454600181811c91168015610236575b602082101461022257601f81116101bf575b50602091601f821160011461015f579181925f92610154575b50508160011b915f199060031b1c1916176004555b6001600c55600580546001600160a01b031916331790556040516122db90816103328239f35b015190505f80610119565b601f1982169260045f52805f20915f5b8581106101a75750836001951061018f575b505050811b0160045561012e565b01515f1960f88460031b161c191690555f8080610181565b9192602060018192868501518155019401920161016f565b60045f527f8a35acfbc15ff81a39ae7d344fd709f28e8600b4aa8c65c6b64bfe7fe36bd19b601f830160051c81019160208410610218575b601f0160051c01905b81811061020d5750610100565b5f8155600101610200565b90915081906101f7565b634e487b7160e01b5f52602260045260245ffd5b90607f16906100ee565b634e487b7160e01b5f52604160045260245ffd5b015190505f806100b8565b601f1982169360035f52805f20915f5b8681106102a85750836001959610610290575b505050811b016003556100cd565b01515f1960f88460031b161c191690555f8080610282565b9192602060018192868501518155019401920161026f565b60035f527fc2575a0e9e593c00f959f8c92f12db2869c3395a3b0502d05e2516446f71f85b601f830160051c81019160208410610319575b601f0160051c01905b81811061030e575061009e565b5f8155600101610301565b90915081906102f8565b90607f169061008c565b5f80fdfe60806040526004361015610011575f80fd5b5f5f3560e01c8063022c0d9f1461144d57806306fdde03146113905780630902f1ac1461134f578063095ea7b3146112a45780630dfe16811461127b57806318160ddd1461125d57806323b872dd1461117b578063313ce5671461115f578063485cc95514610fcd5780635909c0d514610faf5780635a3d549314610f915780636a62784214610cb357806370a0823114610c7b5780637464fc3d14610c5d57806389afcb44146106e057806395d89b41146105cf578063a9059cbb1461059d578063ba9a7a5614610580578063bc25cf7714610426578063c45a0155146103fd578063d21220a7146103d4578063dd62ed3e146103815763fff6cae914610117575f80fd5b3461037e578060031936011261037e576101356001600c5414611a33565b80600c5560246040610169815161014c8382611a73565b600b81526a14de5b98c818d85b1b195960aa1b60208201526120c1565b60065481516370a0823160e01b81523060048201529260209184919082906001600160a01b03165afa918215610374578392610340575b5060075481516370a0823160e01b815230600482015290602090829060249082906001600160a01b03165afa9081156103365784916102fe575b50610253906102f69361020e8185516101f38782611a73565b60098152682130b630b731b2981d60b91b60208201526120fc565b61023982855161021e8782611a73565b60098152682130b630b731b2989d60b91b60208201526120fc565b600854916001600160701b03808460701c16931691611c6f565b6102cb60085461029283516102688582611a73565b600d81526c2732bb903932b9b2b93b32981d60991b60208201526001600160701b038316906120fc565b6001600160701b038351916102a78584611a73565b600d83526c2732bb903932b9b2b93b32989d60991b602084015260701c16906120fc565b6102d781519182611a73565b600d81526c14de5b98c8199a5b9a5cda1959609a1b60208201526120c1565b6001600c5580f35b90506020813d60201161032e575b8161031960209383611a73565b8101031261032a57516102f66101da565b5f80fd5b3d915061030c565b82513d86823e3d90fd5b9091506020813d60201161036c575b8161035c60209383611a73565b8101031261032a5751905f6101a0565b3d915061034f565b81513d85823e3d90fd5b80fd5b503461037e57604036600319011261037e57604061039d6119e3565b916103a66119f9565b9260018060a01b031681526001602052209060018060a01b03165f52602052602060405f2054604051908152f35b503461037e578060031936011261037e576007546040516001600160a01b039091168152602090f35b503461037e578060031936011261037e576005546040516001600160a01b039091168152602090f35b503461037e57602036600319011261037e576104406119e3565b61044e6001600c5414611a33565b600c8290556006546007546040516370a0823160e01b81523060048201526001600160a01b0391821692909116602082602481845afa918215610575578490869361053d575b506104ae6104b4936001600160701b036008541690611aa9565b91611b1d565b6040516370a0823160e01b815230600482015291602083602481855afa9283156105325784936104fc575b506104ae6102f6936001600160701b0360085460701c1690611aa9565b92506020833d60201161052a575b8161051760209383611a73565b8101031261032a579151916104ae6104df565b3d915061050a565b6040513d86823e3d90fd5b9250506020823d60201161056d575b8161055960209383611a73565b8101031261032a57905190836104ae610494565b3d915061054c565b6040513d87823e3d90fd5b503461037e578060031936011261037e5760206040516103e88152f35b503461037e57604036600319011261037e576105c46105ba6119e3565b6024359033611de0565b602060405160018152f35b503461037e578060031936011261037e576040519080600454908160011c916001811680156106d6575b6020841081146106c25783865290811561069b575060011461063e575b61063a8461062681860382611a73565b604051918291602083526020830190611a0f565b0390f35b600481527f8a35acfbc15ff81a39ae7d344fd709f28e8600b4aa8c65c6b64bfe7fe36bd19b939250905b8082106106815750909150810160200161062682610616565b919260018160209254838588010152019101909291610668565b60ff191660208087019190915292151560051b850190920192506106269150839050610616565b634e487b7160e01b83526022600452602483fd5b92607f16926105f9565b503461037e57602036600319011261037e576106fa6119e3565b906107096001600c5414611a33565b80600c55610715611add565b506006546007546040516370a0823160e01b81523060048201526001600160a01b039283169691909216939092906020836024818a5afa928315610c52578693610c1e575b506040516370a0823160e01b815230600482015295602087602481895afa968715610c11578197610bdd575b50308152806020526040812054956040986107cc8a516107a68c82611a73565b6014815273109d5c9b88199d5b98dd1a5bdb8818d85b1b195960621b60208201526120c1565b6107fd868b516107dc8d82611a73565b600f81526e2a37b5b2b718103130b630b731b29d60891b60208201526120fc565b61082e898b5161080d8d82611a73565b600f81526e2a37b5b2b718903130b630b731b29d60891b60208201526120fc565b610861888b5161083e8d82611a73565b60118152702628103a37b5b2b7103130b630b731b29d60791b60208201526120fc565b6108926002548b516108738d82611a73565b600d81526c2a37ba30b61039bab838363c9d60991b60208201526120fc565b6108c161089f8686611eef565b966108b56108ba8b6108b5600254948592611aca565b611aff565b9b8b611aca565b976108f88a8c6108d381519182611a73565b601381527221b0b631bab630ba32b21030b6b7bab73a181d60691b60208201526120fc565b61092e898c61090981519182611a73565b601381527221b0b631bab630ba32b21030b6b7bab73a189d60691b60208201526120fc565b89151580610bd4575b15610b7f573015610b6b5760249594939291610955602092306121ed565b6109878c61096581519182611a73565b60118152704275726e696e67204c5020746f6b656e7360781b848201526120c1565b6109c6898d61099881519182611a73565b601781527f5472616e7366657272696e6720746f6b656e3020746f3a00000000000000000085820152611e8a565b6109d18b8a83611b1d565b610a10898d6109e281519182611a73565b601781527f5472616e7366657272696e6720746f6b656e3120746f3a00000000000000000085820152611e8a565b610a1b8a8a85611b1d565b8b516370a0823160e01b815230600482015296879182905afa948515610b61578295610b2c575b509360206024958b51968780926370a0823160e01b82523060048301525afa918215610b215791610aeb575b610a789450611c6f565b610ac8575b83519083825282602083015260018060a01b0316907fdccd412f0b1252819cb1fd330b93224ca42612892bb3f4f789976e6d81936496853392a36001600c5582519182526020820152f35b610ae36008546001600160701b03808260701c169116611aca565b600b55610a7d565b90506020843d602011610b19575b81610b0660209383611a73565b8101031261032a57610a78935190610a6e565b3d9150610af9565b8a51903d90823e3d90fd5b94506020853d602011610b59575b81610b4760209383611a73565b8101031261032a579351936020610a42565b3d9150610b3a565b8a513d84823e3d90fd5b634b637e8f60e11b84526004849052602484fd5b8a5162461bcd60e51b815260206004820152602860248201527f556e697377617056323a20494e53554646494349454e545f4c495155494449546044820152671657d0955493915160c21b6064820152608490fd5b50881515610937565b9096506020813d602011610c09575b81610bf960209383611a73565b8101031261032a5751955f610786565b3d9150610bec565b50604051903d90823e3d90fd5b9092506020813d602011610c4a575b81610c3a60209383611a73565b8101031261032a5751915f61075a565b3d9150610c2d565b6040513d88823e3d90fd5b503461037e578060031936011261037e576020600b54604051908152f35b503461037e57602036600319011261037e576020906040906001600160a01b03610ca36119e3565b1681528083522054604051908152f35b503461037e57602036600319011261037e57602490610cd06119e3565b610cde6001600c5414611a33565b81600c55610cea611add565b506006546040516370a0823160e01b8152306004820152959293919260209187919082906001600160a01b03165afa948515610532578495610f5c575b506007546040516370a0823160e01b81523060048201529190602090839060249082906001600160a01b03165afa918215610575578592610f28575b506001600160701b03841692610d798488611aa9565b946001600160701b03821693610d8f8582611aa9565b95610d9a8484611eef565b956002549182155f14610ef057505050610dbc610db78789611aca565b612053565b6103e7198101908111610edc57976001600160a01b03851615610ec85750610de66103e885612193565b610df26103e8856121ed565b8715610e7257602098610e0889610e0d966120a8565b611c6f565b610e4f575b604051918252838201527f4c209b5fc8ad50758f13e2e1088ba56a560dff690a1c6fef26394f4c03821c4f60403392a26001600c55604051908152f35b610e6a6008546001600160701b03808260701c169116611aca565b600b55610e12565b60405162461bcd60e51b815260206004820152602860248201527f556e697377617056323a20494e53554646494349454e545f4c495155494449546044820152671657d3525395115160c21b6064820152608490fd5b63ec442f0560e01b81526004819052602490fd5b634e487b7160e01b89526011600452602489fd5b906108b5610f08610f0f936108b586979e968e611aca565b948a611aca565b905080821015610f2157505b96610df2565b9050610f1b565b9091506020813d602011610f54575b81610f4460209383611a73565b8101031261032a5751905f610d63565b3d9150610f37565b9094506020813d602011610f89575b81610f7860209383611a73565b8101031261032a5751936024610d27565b3d9150610f6b565b503461037e578060031936011261037e576020600a54604051908152f35b503461037e578060031936011261037e576020600954604051908152f35b503461037e57604036600319011261037e57610fe76119e3565b610fef6119f9565b6005546001600160a01b03163303611123576006546001600160a01b0381161580611110575b156110cb576001600160a01b038381166001600160a01b0319928316176006556007805491841691909216179055604080516110c89361108b9290919061105c9082611a73565b601d81527f5061697220696e697469616c697a6564207769746820746f6b656e303a0000006020820152611e8a565b604051611099604082611a73565b601d81527f5061697220696e697469616c697a6564207769746820746f6b656e313a0000006020820152611e8a565b80f35b60405162461bcd60e51b815260206004820152601e60248201527f556e697377617056323a20414c52454144595f494e495449414c495a454400006044820152606490fd5b506007546001600160a01b031615611015565b60405162461bcd60e51b81526020600482015260146024820152732ab734b9bbb0b82b191d102327a92124a22222a760611b6044820152606490fd5b503461037e578060031936011261037e57602060405160128152f35b503461037e57606036600319011261037e576111956119e3565b61119d6119f9565b6001600160a01b038216808452600160209081526040808620335f908152925290205460443593915f1982106111da575b50506105c49350611de0565b84821061124257801561122e57331561121a57856040916105c4975260016020522060018060a01b0333165f526020528360405f20910390555f806111ce565b634a1406b160e11b86526004869052602486fd5b63e602df0560e01b86526004869052602486fd5b6064868684637dc7a0d960e11b835233600452602452604452fd5b503461037e578060031936011261037e576020600254604051908152f35b503461037e578060031936011261037e576006546040516001600160a01b039091168152602090f35b503461037e57604036600319011261037e576112be6119e3565b60243590331561133b576001600160a01b031691821561132757604090338152600160205220825f526020528060405f20556040519081527f8c5be1e5ebec7d5bd14f71427d1e84f3dd0314c0f7b2291e5b200ac8c7c3b92560203392a3602060405160018152f35b634a1406b160e11b81526004819052602490fd5b63e602df0560e01b83526004839052602483fd5b503461037e578060031936011261037e5760606001600160701b0363ffffffff611377611add565b9193908160405195168552166020840152166040820152f35b503461037e578060031936011261037e576040519080600354908160011c91600181168015611443575b6020841081146106c25783865290811561069b57506001146113e65761063a8461062681860382611a73565b600381527fc2575a0e9e593c00f959f8c92f12db2869c3395a3b0502d05e2516446f71f85b939250905b8082106114295750909150810160200161062682610616565b919260018160209254838588010152019101909291611410565b92607f16926113ba565b503461032a57608036600319011261032a576044356001600160a01b0381169060243560043583830361032a576064359267ffffffffffffffff841161032a573660238501121561032a5783600401359067ffffffffffffffff821161032a57366024838701011161032a576114c76001600c5414611a33565b5f600c55821594851580966119da575b15611987576114e4611add565b509290916001600160701b0383169485871080611975575b15611926576006546007546001600160a01b039081169a911693908b8514158061191c575b156118df576118cf575b88806118be575b505080611829575b505090602060249392604051948580926370a0823160e01b82523060048301525afa9283156117e75789936117f2575b506020602497604051988980926370a0823160e01b82523060048301525afa9687156117e75789976117b3575b506115a28585611aa9565b8311156117ac576115bc6115b68686611aa9565b84611aa9565b965b6001600160701b038316946115d38887611aa9565b8211156117a5576115ed6115e78988611aa9565b83611aa9565b955b891580158161179c575b1561174b576103e887028781046103e814881517156117375760038c02918c83046003141715611737579061162d91611aa9565b6103e884028481046103e814851517156117375760038902908982046003148a151715611723579161166661166c926116729594611aa9565b90611aca565b92611aca565b90620f4240820291808304620f4240149015171561170f57106116db5761169893611c6f565b6040519384526020840152604083015260608201527fd78ad95fa46c994b6551d0da85fc275fe613ce37657fb8d5e3d130840159d82260803392a36001600c5580f35b60405162461bcd60e51b815260206004820152600c60248201526b556e697377617056323a204b60a01b6044820152606490fd5b634e487b7160e01b8c52601160045260248cfd5b634e487b7160e01b8f52601160045260248ffd5b634e487b7160e01b8e52601160045260248efd5b60405162461bcd60e51b8152602060048201526024808201527f556e697377617056323a20494e53554646494349454e545f494e5055545f414d60448201526313d5539560e21b6064820152608490fd5b508715156115f9565b8a956115ef565b88966115be565b9096506020813d6020116117df575b816117cf60209383611a73565b8101031261032a5751955f611597565b3d91506117c2565b6040513d8b823e3d90fd5b9692506020873d602011611821575b8161180e60209383611a73565b8101031261032a5795519195602061156a565b3d9150611801565b893b1561032a578760a488835f94602460405197889687956304347a1760e21b87523360048801528387015260448601526080606486015282608486015201848401378181018301859052601f01601f19168101030181838d5af180156118b357611895575b8061153a565b602493929199505f6118a691611a73565b60205f999192935061188f565b6040513d5f823e3d90fd5b6118c8918b611b1d565b5f88611532565b6118da888286611b1d565b61152b565b60405162461bcd60e51b8152602060048201526015602482015274556e697377617056323a20494e56414c49445f544f60581b6044820152606490fd5b508a8c1415611521565b60405162461bcd60e51b815260206004820152602160248201527f556e697377617056323a20494e53554646494349454e545f4c495155494449546044820152605960f81b6064820152608490fd5b506001600160701b03851688106114fc565b60405162461bcd60e51b815260206004820152602560248201527f556e697377617056323a20494e53554646494349454e545f4f55545055545f416044820152641353d5539560da1b6064820152608490fd5b508415156114d7565b600435906001600160a01b038216820361032a57565b602435906001600160a01b038216820361032a57565b805180835260209291819084018484015e5f828201840152601f01601f1916010190565b15611a3a57565b60405162461bcd60e51b8152602060048201526011602482015270155b9a5cddd85c158c8e881313d0d2d151607a1b6044820152606490fd5b90601f8019910116810190811067ffffffffffffffff821117611a9557604052565b634e487b7160e01b5f52604160045260245ffd5b91908203918211611ab657565b634e487b7160e01b5f52601160045260245ffd5b81810292918115918404141715611ab657565b6008546001600160701b038116916001600160701b038260701c169160e01c90565b8115611b09570490565b634e487b7160e01b5f52601260045260245ffd5b5f91929082918260409560208751611b358982611a73565b601981527f7472616e7366657228616464726573732c75696e743235362900000000000000910152865163a9059cbb60e01b602082019081526001600160a01b03909216602482015260448082019490945292835291611b96606482611a73565b51925af13d15611c5b573d67ffffffffffffffff8111611a9557825190611bc7601f8201601f191660200183611a73565b81523d5f602083013e5b81611c23575b5015611be05750565b5162461bcd60e51b815260206004820152601a60248201527f556e697377617056323a205452414e534645525f4641494c45440000000000006044820152606490fd5b8051801592508215611c38575b50505f611bd7565b819250906020918101031261032a5760200151801515810361032a575f80611c30565b6060611bd1565b91908201809211611ab657565b926001600160701b0384111580611dcf575b15611d945760085460e01c63ffffffff42160363ffffffff8111611ab6577f1c411e9a96e071241c2f21f7726b17ae89e3cab4c78be50e062b03a9fffbbad1946040946001600160701b039363ffffffff85941680151580611d89575b80611d7e575b611d1d575b50505016918263ffffffff60e01b4260e01b16918360701b9060701b16171780600855835192835260701c166020820152a1565b611d7392611d6b92611d4890611d56611d4e856001600160e01b038587611d438761213f565b612175565b16611aca565b600954611c62565b6009556001600160e01b0392611d439061213f565b600a54611c62565b600a555f8080611ce9565b508482161515611ce4565b508483161515611cde565b60405162461bcd60e51b8152602060048201526013602482015272556e697377617056323a204f564552464c4f5760681b6044820152606490fd5b506001600160701b03821115611c81565b6001600160a01b0316908115611e77576001600160a01b0316918215611e6457815f525f60205260405f2054818110611e4b57815f5160206122865f395f51905f5292602092855f525f84520360405f2055845f525f825260405f20818154019055604051908152a3565b8263391434e360e21b5f5260045260245260445260645ffd5b63ec442f0560e01b5f525f60045260245ffd5b634b637e8f60e11b5f525f60045260245ffd5b611eb9611ed85f9392849360405193849263319af33360e01b6020850152604060248501526064840190611a0f565b6001600160a01b0391909116604483015203601f198101835282611a73565b6020815191016a636f6e736f6c652e6c6f675afa50565b600554604051622fcfcb60e31b81529293929190602090839060049082906001600160a01b03165afa9182156118b3575f9261200f575b50600b546001600160a01b03831615801595919290611fff5782611f4c575b505050505b565b610db7611f68916001600160701b0380611f6e95169116611aca565b91612053565b90818111611f7d575b80611f45565b611f8d6002546116668484611aa9565b90600581029080820460051490151715611ab657611fb492611fae91611c62565b90611aff565b80611fc0575b80611f77565b611fcd81611ff8936120a8565b604051611fdb604082611a73565b600b81526a26b4b73a32b2103332b29d60a91b60208201526120fc565b5f80611fba565b5050905061200957565b5f600b55565b9091506020813d60201161204b575b8161202b60209383611a73565b8101031261032a57516001600160a01b038116810361032a57905f611f26565b3d915061201e565b905f600383111561209b5750818060011c60018101809111611ab657905b83821061207c575050565b9092506120928361208d8184611aff565b611c62565b60011c90612071565b916120a257565b60019150565b906001600160a01b03821615611e6457611f4a91612193565b5f6120ee611ed8829360405192839163104c13eb60e21b6020840152602060248401526044830190611a0f565b03601f198101835282611a73565b61212b611ed85f93928493604051938492632d839cb360e21b6020850152604060248501526064840190611a0f565b90604483015203601f198101835282611a73565b6dffffffffffffffffffffffffffff60701b607082901b16906001600160701b0316808204600160701b1490151715611ab65790565b906001600160701b0316908115611b09576001600160e01b03160490565b5f5160206122865f395f51905f5260205f926121b185600254611c62565b6002556001600160a01b031693841584146121d85780600254036002555b604051908152a3565b848452838252604084208181540190556121cf565b9091906001600160a01b031680612232575f5160206122865f395f51905f5260208461221d5f9596600254611c62565b6002555b8060025403600255604051908152a3565b805f525f60205260405f205483811061226b576020845f94955f5160206122865f395f51905f5293858752868452036040862055612221565b915063391434e360e21b5f5260045260245260445260645ffdfeddf252ad1be2c89b69c2b068fc378daa952ba7f163c4a11628f55a4df523b3efa26469706673582212202edc8b8fbb6a33b60721fd4290dcd19ebfacc16fb3f9adf455eec5a16a1cb1d064736f6c634300081c0033","linkReferences":{}},"methodIdentifiers":{"MINIMUM_LIQUIDITY()":"ba9a7a56","allowance(address,address)":"dd62ed3e","approve(address,uint256)":"095ea7b3","balanceOf(address)":"70a08231","burn(address)":"89afcb44","decimals()":"313ce567","factory()":"c45a0155","getReserves()":"0902f1ac","initialize(address,address)":"485cc955","kLast()":"7464fc3d","mint(address)":"6a627842","name()":"06fdde03","price0CumulativeLast()":"5909c0d5","price1CumulativeLast()":"5a3d5493","skim(address)":"bc25cf77","swap(uint256,uint256,address,bytes)":"022c0d9f","symbol()":"95d89b41","sync()":"fff6cae9","token0()":"0dfe1681","token1()":"d21220a7","totalSupply()":"18160ddd","transfer(address,uint256)":"a9059cbb","transferFrom(address,address,uint256)":"23b872dd"},"id":29}